:100000000AC019C018C017C017C015C014C013C04B
:1000100012C011C010C011271FBFCFE5D0E0DEBF56
:10002000CDBF20E0A0E4B0E001C01D93A534B2072D
:10003000E1F764D0EEC0E4CF1F930F930FB70F9397
:1000400010E04F935F934AB74E7F4ABF40A14130C3
:10005000C1F070F0423019F1433051F14AB74160BC
:100060004ABF5F914F910F910FBF0F911F9118954C
:10007000109A40A14F5F40A94FEF49BD42EB48BDE8
:10008000EDCF109840A14F5F40A941A152A15195D9
:100090004195510B59BD41A1419548BDDFCF119A02
:1000A00040A14F5F40A94FEF49BD42EB48BDD6CFBD
:1000B000119810A941A152A142515A4059BD41A1E4
:1000C000425148BDCBCF42E04BBB41E84DBB4AE07B
:1000D00090E080E0EE9AEE99FECF59B3850F911F24
:1000E00061EE74E061507040E9F700C000004150DB
:1000F00089F76AE070E077D0862F0895CF93DF9379
:1001000000D000D0CDB7DEB748ED4CBF43E046BFCE
:10011000DADF482F50E070E060E0CF5FDF4F4993B7
:10012000599369937883C450D040440F551F661F7C
:10013000771F440F551F661F771F440F551F661FFB
:10014000771F440F551F661F771F440F551F661FEB
:10015000771FCF5FDF4F89919991A991B881C450E2
:10016000D040481B590B6A0B7B0B440F551F661F71
:10017000771F440F551F661F771F480F591F6A1FAF
:100180007B1F440F551F661F771F440F551F661FA7
:10019000771F440F551F661F771F440F551F661F9B
:1001A000771F452F562F672F772741A952A963A99B
:1001B00074A91DBB42E045BF93E091B94BB54E7F9A
:1001C0004BBD1DBD1EBD41E04BBD4FEF49BD48BD00
:1001D00078944AB7417F4ABF4AB741604ABF44E07A
:1001E0004DBD8895FECFAA1BBB1B51E107C0AA1FBE
:1001F000BB1FA617B70710F0A61BB70B881F991FC8
:100200005A95A9F780959095682F792F8A2F9B2F63
:060210000895F894FFCFF1
:00000001FF
