:100000000DC023C122C121C1A0C01FC11EC11DC17D
:100010001CC11BC11AC100400045800011271FBF31
:10002000CFE5D0E0DEBFCDBFC6E1D0E440E415C0EF
:10003000B991A99139912991099107FD0AC0F991C6
:10004000E991E050F04C51915D93A217B307D9F7B5
:1000500004C01D93A217B307E1F7CB31D40741F7D2
:0800600003D0E9C0F894FFCFC2
:10006800CF93DF9300D000D0CDB7DEB748ED4CBFBB
:1000780043E046BFABD0482F50E060E070E0440F4B
:10008800551F661F771F440F551F661F771F440FA4
:10009800551F661F771F440F551F661F771FB72F01
:1000A800A62F952F842F880F991FAA1FBB1F880F73
:1000B800991FAA1FBB1F480F591F6A1F7B1FB72F05
:1000C800A62F952F842F880F991FAA1FBB1F880F53
:1000D800991FAA1FBB1F480F591F6A1F7B1FB72FE5
:1000E800A62F952F842F880F991FAA1FBB1F880F33
:1000F800991FAA1FBB1F480F591F6A1F7B1F452F37
:10010800562F672F772740A951A962A973A91DBB4C
:1001180042E045BF93E091B94BB54E7F4BBD1DBD45
:100128001EBD41E04BBD4FEF49BD48BD78944AB76D
:10013800417F4ABF4AB741604ABF44E04DBD8895F8
:02014800FECFE8
:10014A001F931FB71F9310E04F935F934AB74E7FD9
:10015A004ABF44A1413079F028F04230D1F043300F
:10016A0009F12AC0109A44A14F5F44A94FEF49BD33
:10017A0042EB48BD21C0109844A14F5F44A940A159
:10018A0051A151954195510B59BD40A1419548BD89
:10019A0013C0119A44A14F5F44A94FEF49BD42EBE6
:1001AA0048BD0AC0119814A940A151A142515A4010
:1001BA0059BD40A1425148BD4AB741604ABF5F910B
:0A01CA004F911F911FBF1F91189560
:1001D40042E04BBB41E84DBB4AE080E090E0EE9A40
:1001E400EE99FECF59B3850F911F61EE74E0615013
:1001F4007040E9F700C00000415089F76AE070E000
:0602040002D0862F0895D0
:10020A00AA1BBB1B51E107C0AA1FBB1FA617B70732
:10021A0010F0A61BB70B881F991F5A95A9F780954E
:0C022A009095682F792F8A2F9B2F089544
:10023600C82FD92F09D007D08C2F9D2F06D08C2FF1
:040246009D2F04D014
:02024A00DACE0A
:02024C00089513
:02024E00089511
:0202500008950F
:0202520008DFC3
:00000001FF
